{
  "contractName": "Lottery",
  "abi": [
    {
      "constant": true,
      "inputs": [],
      "name": "owner",
      "outputs": [
        {
          "name": "",
          "type": "address"
        }
      ],
      "payable": false,
      "stateMutability": "view",
      "type": "function"
    },
    {
      "inputs": [],
      "payable": false,
      "stateMutability": "nonpayable",
      "type": "constructor"
    },
    {
      "anonymous": false,
      "inputs": [
        {
          "indexed": false,
          "name": "index",
          "type": "uint256"
        },
        {
          "indexed": false,
          "name": "bettor",
          "type": "address"
        },
        {
          "indexed": false,
          "name": "amount",
          "type": "uint256"
        },
        {
          "indexed": false,
          "name": "challenges",
          "type": "bytes1"
        },
        {
          "indexed": false,
          "name": "answerBlockNumber",
          "type": "uint256"
        }
      ],
      "name": "BET",
      "type": "event"
    },
    {
      "constant": true,
      "inputs": [],
      "name": "getPot",
      "outputs": [
        {
          "name": "value",
          "type": "uint256"
        }
      ],
      "payable": false,
      "stateMutability": "view",
      "type": "function"
    },
    {
      "constant": false,
      "inputs": [
        {
          "name": "challenges",
          "type": "bytes1"
        }
      ],
      "name": "bet",
      "outputs": [
        {
          "name": "result",
          "type": "bool"
        }
      ],
      "payable": true,
      "stateMutability": "payable",
      "type": "function"
    },
    {
      "constant": true,
      "inputs": [
        {
          "name": "index",
          "type": "uint256"
        }
      ],
      "name": "getBetInfo",
      "outputs": [
        {
          "name": "answerBlockNumber",
          "type": "uint256"
        },
        {
          "name": "bettor",
          "type": "address"
        },
        {
          "name": "challenges",
          "type": "bytes1"
        }
      ],
      "payable": false,
      "stateMutability": "view",
      "type": "function"
    },
    {
      "constant": false,
      "inputs": [
        {
          "name": "challenges",
          "type": "bytes1"
        }
      ],
      "name": "pushBet",
      "outputs": [
        {
          "name": "",
          "type": "bool"
        }
      ],
      "payable": false,
      "stateMutability": "nonpayable",
      "type": "function"
    },
    {
      "constant": false,
      "inputs": [
        {
          "name": "index",
          "type": "uint256"
        }
      ],
      "name": "popBet",
      "outputs": [
        {
          "name": "",
          "type": "bool"
        }
      ],
      "payable": false,
      "stateMutability": "nonpayable",
      "type": "function"
    }
  ],
  "bytecode": "0x608060405234801561001057600080fd5b5033600360006101000a81548173ffffffffffffffffffffffffffffffffffffffff021916908373ffffffffffffffffffffffffffffffffffffffff160217905550610870806100616000396000f3fe608060405260043610610078576000357c0100000000000000000000000000000000000000000000000000000000900463ffffffff168063032820961461007d578063403c9fa8146100f257806379141f801461011d5780638da5cb5b146101ea578063d04c9a8c14610241578063f4b46f5b14610294575b600080fd5b34801561008957600080fd5b506100d8600480360360208110156100a057600080fd5b8101908080357effffffffffffffffffffffffffffffffffffffffffffffffffffffffffffff191690602001909291905050506102fc565b604051808215151515815260200191505060405180910390f35b3480156100fe57600080fd5b5061010761045c565b6040518082815260200191505060405180910390f35b34801561012957600080fd5b506101566004803603602081101561014057600080fd5b8101908080359060200190929190505050610466565b604051808481526020018373ffffffffffffffffffffffffffffffffffffffff1673ffffffffffffffffffffffffffffffffffffffff168152602001827effffffffffffffffffffffffffffffffffffffffffffffffffffffffffffff19167effffffffffffffffffffffffffffffffffffffffffffffffffffffffffffff19168152602001935050505060405180910390f35b3480156101f657600080fd5b506101ff61058b565b604051808273ffffffffffffffffffffffffffffffffffffffff1673ffffffffffffffffffffffffffffffffffffffff16815260200191505060405180910390f35b34801561024d57600080fd5b5061027a6004803603602081101561026457600080fd5b81019080803590602001909291905050506105b1565b604051808215151515815260200191505060405180910390f35b6102e2600480360360208110156102aa57600080fd5b8101908080357effffffffffffffffffffffffffffffffffffffffffffffffffffffffffffff19169060200190929190505050610615565b604051808215151515815260200191505060405180910390f35b60006103066107ea565b33816020019073ffffffffffffffffffffffffffffffffffffffff16908173ffffffffffffffffffffffffffffffffffffffff1681525050600343018160000181815250508281604001907effffffffffffffffffffffffffffffffffffffffffffffffffffffffffffff191690817effffffffffffffffffffffffffffffffffffffffffffffffffffffffffffff1916815250508060026000805481526020019081526020016000206000820151816000015560208201518160010160006101000a81548173ffffffffffffffffffffffffffffffffffffffff021916908373ffffffffffffffffffffffffffffffffffffffff16021790555060408201518160010160146101000a81548160ff02191690837f010000000000000000000000000000000000000000000000000000000000000090040217905550905050600080815480929190600101919050555050919050565b6000600454905090565b60008060006104736107ea565b6002600086815260200190815260200160002060606040519081016040529081600082015481526020016001820160009054906101000a900473ffffffffffffffffffffffffffffffffffffffff1673ffffffffffffffffffffffffffffffffffffffff1673ffffffffffffffffffffffffffffffffffffffff1681526020016001820160149054906101000a90047f0100000000000000000000000000000000000000000000000000000000000000027effffffffffffffffffffffffffffffffffffffffffffffffffffffffffffff19167effffffffffffffffffffffffffffffffffffffffffffffffffffffffffffff1916815250509050806000015193508060200151925080604001519150509193909250565b600360009054906101000a900473ffffffffffffffffffffffffffffffffffffffff1681565b6000600260008381526020019081526020016000206000808201600090556001820160006101000a81549073ffffffffffffffffffffffffffffffffffffffff02191690556001820160146101000a81549060ff0219169055505060019050919050565b60006611c37937e0800034141515610695576040517f08c379a000000000000000000000000000000000000000000000000000000000815260040180806020018281038252600e8152602001807f4e6f7420656e6f7567682045544800000000000000000000000000000000000081525060200191505060405180910390fd5b61069e826102fc565b1515610712576040517f08c379a000000000000000000000000000000000000000000000000000000000815260040180806020018281038252601a8152602001807f4661696c20746f206164642061206e65772042657420496e666f00000000000081525060200191505060405180910390fd5b7f100791de9f40bf2d56ffa6dc5597d2fd0b2703ea70bc7548cd74c04f5d215ab760016000540333348560034301604051808681526020018573ffffffffffffffffffffffffffffffffffffffff1673ffffffffffffffffffffffffffffffffffffffff168152602001848152602001837effffffffffffffffffffffffffffffffffffffffffffffffffffffffffffff19167effffffffffffffffffffffffffffffffffffffffffffffffffffffffffffff191681526020018281526020019550505050505060405180910390a160019050919050565b60606040519081016040528060008152602001600073ffffffffffffffffffffffffffffffffffffffff16815260200160007effffffffffffffffffffffffffffffffffffffffffffffffffffffffffffff19168152509056fea165627a7a72305820d05a789204851716f3465830616accfd5681d9f811b8243e3f978a95317360bd0029",
  "source": "pragma solidity >=0.4.22 <0.9.0;\n\ncontract Lottery {\n    struct BetInfo {\n        uint256 answerBlockNumber;\n        address payable bettor;\n        byte challenges; // 0xab\n    }\n\n    uint256 private _tail;\n    uint256 private _head;\n    mapping (uint256 => BetInfo) private _bets;\n\n    address public owner;\n\n    uint256 constant internal BLOCK_LIMIT = 256;\n    uint256 constant internal BET_BLOCK_INTERVAL = 3;\n    uint256 constant internal BET_AMOUNT = 5 * 10 ** 15;\n    uint256 private _pot;\n\n    event BET(uint256 index, address bettor, uint256 amount, byte challenges, uint256 answerBlockNumber);\n    constructor() public {\n        owner = msg.sender;\n    }\n\n    function getPot() public view returns (uint256 value) {\n        return _pot;\n    }\n\n    /**\n    * @dev 베팅을 한다. 유저는 0.0005 ET를 보내야 하고, 베팅용 1 byte 글자를 보낸다.\n    * 큐에 저장된 베팅 정보는 이후 distrubute 함수에서 해결된다.\n    * @param challenges 유저가 베팅하는 글자\n    * @return 함수가 잘 수행되었는지 확인하는 bool 값 */\n    function bet(byte challenges) public payable returns (bool result) {\n        // check the proper ether is sent\n        require(msg.value == BET_AMOUNT, \"Not enough ETH\");\n        // push bet to the queue\n        require(pushBet(challenges), \"Fail to add a new Bet Info\");\n        // emit event\n        emit BET(_tail-1, msg.sender, msg.value, challenges, block.number + BET_BLOCK_INTERVAL);\n\n        return true;\n    }\n\n    // Distribute\n        // check the answer\n        // \n\n    function getBetInfo(uint256 index) public view returns (uint256 answerBlockNumber, address bettor, byte challenges) {\n        BetInfo memory b = _bets[index];\n        answerBlockNumber = b.answerBlockNumber;\n        bettor = b.bettor;\n        challenges = b.challenges;\n    }\n\n    function pushBet(byte challenges) public returns (bool) {\n        BetInfo memory b;\n        b.bettor = msg.sender;\n        b.answerBlockNumber = block.number + BET_BLOCK_INTERVAL;\n        b.challenges = challenges;\n        \n        _bets[_tail] = b;\n        _tail++;\n    }\n\n    function popBet(uint256 index) public returns (bool) {\n        delete _bets[index];\n        return true;\n    }\n}",
  "sourcePath": "/Users/bok/git/DApp/lottery-smart-contract/contracts/Lottery.sol",
  "compiler": {
    "name": "solc",
    "version": "0.5.0+commit.1d4f565a.Emscripten.clang"
  },
  "schemaVersion": "3.0.1",
  "updatedAt": "2022-04-22T02:12:01.802Z",
  "devdoc": {
    "methods": {
      "bet(bytes1)": {
        "details": "베팅을 한다. 유저는 0.0005 ET를 보내야 하고, 베팅용 1 byte 글자를 보낸다. 큐에 저장된 베팅 정보는 이후 distrubute 함수에서 해결된다.",
        "params": {
          "challenges": "유저가 베팅하는 글자"
        },
        "return": "함수가 잘 수행되었는지 확인하는 bool 값 "
      }
    }
  },
  "userdoc": {
    "methods": {}
  }
}